:020000040000FA
:020000000B28CB
:10000800DE00030E8312A0000A08A1002E280C2887
:100018008301442883169F0183129F0107309900AA
:100028008316990185018312850183160515903081
:100038008312A20022088B0483160117051083126D
:10004800051083160512831205168316851283126E
:10005800851208008B1C3128322834283C208B104C
:10006800831221088A00200E8300DE0E5E0E09002E
:100078001030831285062030850601308506080079
:060088000E2045280B28A4
:00000001FF
