:020000040000FA
:020000000B28CB
:10000800DE00030E8312A0000A08A100B8280C28FD
:100018008312A8018301102847201A308312A700F1
:10002800F830A600A60B1628A70B162800000B30E0
:100038008312A6002608A200003077201A30831207
:10004800A700F830A600A60B2728A70B2728000032
:10005800D02083122803031D322833282D280508B1
:10006800A6002608A200013077201A308312A700C4
:10007800F830A600A60B3E28A70B3E2800008312E6
:10008800A8012D280B288B1783169F0183129F0127
:100098000730990083169901051285120510051578
:1000A800831285011A30A500F830A400A40B5A2841
:1000B800A50B5A2800000030A3200B3A031D652821
:1000C800662872280130A320FF3A031D6C286D288A
:1000D8007228831285160512051076280130A32090
:1000E8008312850008008312A40083169C187D28BB
:1000F8007E2879288312240883169B0083122208FD
:1001080083169A003F308312A300230883169C05A8
:10011800831203108B1F91289228932803148B13A2
:1001280083161C1555309D00AA309D009C141C1187
:100138008312031CA028A128A2288B170800831269
:10014800A300640083169C18AA28AB28A52883124C
:10015800230883169B003F308312A20022088316CF
:100168009C051C141A0808008B1CBB28BC28BE2838
:10017800C8208B108312A801A80A21088A00200E23
:100188008300DE0E5E0E09001030831285062030D3
:1001980085060130850608000B16831601178B1794
:0201A80008004D
:02400E00C431BB
:00000001FF
